{
  "_format": "hh-sol-artifact-1",
  "contractName": "FileTransfer",
  "sourceName": "contracts/FileTransfer.sol",
  "abi": [
    {
      "inputs": [],
      "stateMutability": "payable",
      "type": "constructor"
    },
    {
      "anonymous": false,
      "inputs": [
        {
          "indexed": false,
          "internalType": "string",
          "name": "cid",
          "type": "string"
        }
      ],
      "name": "FileGetCid",
      "type": "event"
    },
    {
      "anonymous": false,
      "inputs": [
        {
          "indexed": false,
          "internalType": "uint256",
          "name": "fileId",
          "type": "uint256"
        }
      ],
      "name": "FileIdCreated",
      "type": "event"
    },
    {
      "inputs": [
        {
          "internalType": "uint256",
          "name": "_fileId",
          "type": "uint256"
        }
      ],
      "name": "downloadFile",
      "outputs": [],
      "stateMutability": "payable",
      "type": "function"
    },
    {
      "inputs": [
        {
          "internalType": "uint256",
          "name": "",
          "type": "uint256"
        }
      ],
      "name": "files",
      "outputs": [
        {
          "internalType": "uint256",
          "name": "id",
          "type": "uint256"
        },
        {
          "internalType": "string",
          "name": "cid",
          "type": "string"
        },
        {
          "internalType": "address",
          "name": "uploader",
          "type": "address"
        }
      ],
      "stateMutability": "view",
      "type": "function"
    },
    {
      "inputs": [],
      "name": "getBalanceOfContract",
      "outputs": [
        {
          "internalType": "uint256",
          "name": "",
          "type": "uint256"
        }
      ],
      "stateMutability": "view",
      "type": "function"
    },
    {
      "inputs": [],
      "name": "owner",
      "outputs": [
        {
          "internalType": "address payable",
          "name": "",
          "type": "address"
        }
      ],
      "stateMutability": "view",
      "type": "function"
    },
    {
      "inputs": [
        {
          "internalType": "uint256",
          "name": "_amount",
          "type": "uint256"
        }
      ],
      "name": "ownerWithdraw",
      "outputs": [],
      "stateMutability": "nonpayable",
      "type": "function"
    },
    {
      "inputs": [
        {
          "internalType": "string",
          "name": "_fileCid",
          "type": "string"
        }
      ],
      "name": "uploadFile",
      "outputs": [],
      "stateMutability": "payable",
      "type": "function"
    }
  ],
  "bytecode": "0x60806040526000600155336000806101000a81548173ffffffffffffffffffffffffffffffffffffffff021916908373ffffffffffffffffffffffffffffffffffffffff160217905550610eb4806100586000396000f3fe6080604052600436106100555760003560e01c8063229688851461005a57806333f707d1146100855780638da5cb5b146100ae57806393df2738146100d9578063e37ffc30146100f5578063f4c714b414610111575b600080fd5b34801561006657600080fd5b5061006f610150565b60405161007c9190610863565b60405180910390f35b34801561009157600080fd5b506100ac60048036038101906100a791906108be565b610158565b005b3480156100ba57600080fd5b506100c3610250565b6040516100d0919061092c565b60405180910390f35b6100f360048036038101906100ee91906108be565b610274565b005b61010f600480360381019061010a9190610a8d565b610476565b005b34801561011d57600080fd5b50610138600480360381019061013391906108be565b6105f6565b60405161014793929190610b7f565b60405180910390f35b600047905090565b60008054906101000a900473ffffffffffffffffffffffffffffffffffffffff1673ffffffffffffffffffffffffffffffffffffffff163373ffffffffffffffffffffffffffffffffffffffff16146101e6576040517f08c379a00000000000000000000000000000000000000000000000000000000081526004016101dd90610c2f565b60405180910390fd5b60008054906101000a900473ffffffffffffffffffffffffffffffffffffffff1673ffffffffffffffffffffffffffffffffffffffff166108fc829081150290604051600060405180830381858888f1935050505015801561024c573d6000803e3d6000fd5b5050565b60008054906101000a900473ffffffffffffffffffffffffffffffffffffffff1681565b662386f26fc100003410156102be576040517f08c379a00000000000000000000000000000000000000000000000000000000081526004016102b590610cc1565b60405180910390fd5b6002600082815260200190815260200160002060030160009054906101000a900473ffffffffffffffffffffffffffffffffffffffff1673ffffffffffffffffffffffffffffffffffffffff166108fc661c6bf5263400009081150290604051600060405180830381858888f19350505050158015610341573d6000803e3d6000fd5b5060008054906101000a900473ffffffffffffffffffffffffffffffffffffffff1673ffffffffffffffffffffffffffffffffffffffff166108fc66071afd498d00009081150290604051600060405180830381858888f193505050501580156103af573d6000803e3d6000fd5b5060026000828152602001908152602001600020600201339080600181540180825580915050600190039060005260206000200160009091909190916101000a81548173ffffffffffffffffffffffffffffffffffffffff021916908373ffffffffffffffffffffffffffffffffffffffff1602179055507f3c2132cf710f0ca0de34820196b533fa064c602a7dabe350bfd8dde4d5e8130e6002600083815260200190815260200160002060010160405161046b9190610dd7565b60405180910390a150565b60018060008282546104889190610e28565b9250508190555060015460036000018190555080600360010190805190602001906104b49291906106c8565b50336003800160006101000a81548173ffffffffffffffffffffffffffffffffffffffff021916908373ffffffffffffffffffffffffffffffffffffffff160217905550600360026000600154815260200190815260200160002060008201548160000155600182018160010190805461052d90610d10565b61053892919061074e565b50600282018160020190805461054f9291906107db565b506003820160009054906101000a900473ffffffffffffffffffffffffffffffffffffffff168160030160006101000a81548173ffffffffffffffffffffffffffffffffffffffff021916908373ffffffffffffffffffffffffffffffffffffffff1602179055509050507f2a022ceccc848077b9a0812dc4cf2923ba0fd793ff5ee63f3ee0fdc7e9d2ce546001546040516105eb9190610863565b60405180910390a150565b600260205280600052604060002060009150905080600001549080600101805461061f90610d10565b80601f016020809104026020016040519081016040528092919081815260200182805461064b90610d10565b80156106985780601f1061066d57610100808354040283529160200191610698565b820191906000526020600020905b81548152906001019060200180831161067b57829003601f168201915b5050505050908060030160009054906101000a900473ffffffffffffffffffffffffffffffffffffffff16905083565b8280546106d490610d10565b90600052602060002090601f0160209004810192826106f6576000855561073d565b82601f1061070f57805160ff191683800117855561073d565b8280016001018555821561073d579182015b8281111561073c578251825591602001919060010190610721565b5b50905061074a919061082d565b5090565b82805461075a90610d10565b90600052602060002090601f01602090048101928261077c57600085556107ca565b82601f1061078d57805485556107ca565b828001600101855582156107ca57600052602060002091601f016020900482015b828111156107c95782548255916001019190600101906107ae565b5b5090506107d7919061082d565b5090565b82805482825590600052602060002090810192821561081c5760005260206000209182015b8281111561081b578254825591600101919060010190610800565b5b509050610829919061082d565b5090565b5b8082111561084657600081600090555060010161082e565b5090565b6000819050919050565b61085d8161084a565b82525050565b60006020820190506108786000830184610854565b92915050565b6000604051905090565b600080fd5b600080fd5b61089b8161084a565b81146108a657600080fd5b50565b6000813590506108b881610892565b92915050565b6000602082840312156108d4576108d3610888565b5b60006108e2848285016108a9565b91505092915050565b600073ffffffffffffffffffffffffffffffffffffffff82169050919050565b6000610916826108eb565b9050919050565b6109268161090b565b82525050565b6000602082019050610941600083018461091d565b92915050565b600080fd5b600080fd5b6000601f19601f8301169050919050565b7f4e487b7100000000000000000000000000000000000000000000000000000000600052604160045260246000fd5b61099a82610951565b810181811067ffffffffffffffff821117156109b9576109b8610962565b5b80604052505050565b60006109cc61087e565b90506109d88282610991565b919050565b600067ffffffffffffffff8211156109f8576109f7610962565b5b610a0182610951565b9050602081019050919050565b82818337600083830152505050565b6000610a30610a2b846109dd565b6109c2565b905082815260208101848484011115610a4c57610a4b61094c565b5b610a57848285610a0e565b509392505050565b600082601f830112610a7457610a73610947565b5b8135610a84848260208601610a1d565b91505092915050565b600060208284031215610aa357610aa2610888565b5b600082013567ffffffffffffffff811115610ac157610ac061088d565b5b610acd84828501610a5f565b91505092915050565b600081519050919050565b600082825260208201905092915050565b60005b83811015610b10578082015181840152602081019050610af5565b83811115610b1f576000848401525b50505050565b6000610b3082610ad6565b610b3a8185610ae1565b9350610b4a818560208601610af2565b610b5381610951565b840191505092915050565b6000610b69826108eb565b9050919050565b610b7981610b5e565b82525050565b6000606082019050610b946000830186610854565b8181036020830152610ba68185610b25565b9050610bb56040830184610b70565b949350505050565b7f4f6e6c7920746865206f776e6572206f662074686520636f6e7472616374206360008201527f616e207769746864726177000000000000000000000000000000000000000000602082015250565b6000610c19602b83610ae1565b9150610c2482610bbd565b604082019050919050565b60006020820190508181036000830152610c4881610c0c565b9050919050565b7f3120657468657220697320726571756972656420746f20646f776e6c6f61642060008201527f612066696c652e00000000000000000000000000000000000000000000000000602082015250565b6000610cab602783610ae1565b9150610cb682610c4f565b604082019050919050565b60006020820190508181036000830152610cda81610c9e565b9050919050565b7f4e487b7100000000000000000000000000000000000000000000000000000000600052602260045260246000fd5b60006002820490506001821680610d2857607f821691505b60208210811415610d3c57610d3b610ce1565b5b50919050565b60008190508160005260206000209050919050565b60008154610d6481610d10565b610d6e8186610ae1565b94506001821660008114610d895760018114610d9b57610dce565b60ff1983168652602086019350610dce565b610da485610d42565b60005b83811015610dc657815481890152600182019150602081019050610da7565b808801955050505b50505092915050565b60006020820190508181036000830152610df18184610d57565b905092915050565b7f4e487b7100000000000000000000000000000000000000000000000000000000600052601160045260246000fd5b6000610e338261084a565b9150610e3e8361084a565b9250827fffffffffffffffffffffffffffffffffffffffffffffffffffffffffffffffff03821115610e7357610e72610df9565b5b82820190509291505056fea2646970667358221220a049ef509c965787b202c6f6c7a38d83ab69a050bd1adcef1d4555c97785569664736f6c63430008090033",
  "linkReferences": {},
  "deployedLinkReferences": {}
}